{
  "_format": "hh3-artifact-1",
  "contractName": "GameRegistry",
  "sourceName": "contracts/pirates.sol",
  "abi": [
    {
      "inputs": [
        {
          "internalType": "string",
          "name": "name",
          "type": "string"
        },
        {
          "internalType": "string",
          "name": "gameURL",
          "type": "string"
        }
      ],
      "name": "addGame",
      "outputs": [
        {
          "internalType": "uint256",
          "name": "id",
          "type": "uint256"
        }
      ],
      "stateMutability": "nonpayable",
      "type": "function"
    },
    {
      "inputs": [
        {
          "internalType": "uint256",
          "name": "",
          "type": "uint256"
        }
      ],
      "name": "games",
      "outputs": [
        {
          "internalType": "uint256",
          "name": "gameId",
          "type": "uint256"
        },
        {
          "internalType": "string",
          "name": "name",
          "type": "string"
        },
        {
          "internalType": "string",
          "name": "gameURL",
          "type": "string"
        }
      ],
      "stateMutability": "view",
      "type": "function"
    },
    {
      "inputs": [
        {
          "internalType": "uint256",
          "name": "gameId",
          "type": "uint256"
        }
      ],
      "name": "getGame",
      "outputs": [
        {
          "internalType": "uint256",
          "name": "",
          "type": "uint256"
        },
        {
          "internalType": "string",
          "name": "",
          "type": "string"
        },
        {
          "internalType": "string",
          "name": "",
          "type": "string"
        }
      ],
      "stateMutability": "view",
      "type": "function"
    },
    {
      "inputs": [],
      "name": "nextGameId",
      "outputs": [
        {
          "internalType": "uint256",
          "name": "",
          "type": "uint256"
        }
      ],
      "stateMutability": "view",
      "type": "function"
    }
  ],
  "bytecode": "0x608060405260015f553480156012575f5ffd5b506106db806100205f395ff3fe608060405234801561000f575f5ffd5b506004361061004a575f3560e01c8063117a5b901461004e578063a2f77bcc14610079578063b135bbb01461008c578063d8c62356146100a2575b5f5ffd5b61006161005c366004610404565b6100b5565b60405161007093929190610449565b60405180910390f35b610061610087366004610404565b6101e2565b6100945f5481565b604051908152602001610070565b6100946100b03660046104c2565b610326565b600160208190525f9182526040909120805491810180546100d59061052e565b80601f01602080910402602001604051908101604052809291908181526020018280546101019061052e565b801561014c5780601f106101235761010080835404028352916020019161014c565b820191905f5260205f20905b81548152906001019060200180831161012f57829003601f168201915b5050505050908060020180546101619061052e565b80601f016020809104026020016040519081016040528092919081815260200182805461018d9061052e565b80156101d85780601f106101af576101008083540402835291602001916101d8565b820191905f5260205f20905b8154815290600101906020018083116101bb57829003601f168201915b5050505050905083565b5f8181526001602081905260408220805491810180546060938493929091600284019082906102109061052e565b80601f016020809104026020016040519081016040528092919081815260200182805461023c9061052e565b80156102875780601f1061025e57610100808354040283529160200191610287565b820191905f5260205f20905b81548152906001019060200180831161026a57829003601f168201915b5050505050915080805461029a9061052e565b80601f01602080910402602001604051908101604052809291908181526020018280546102c69061052e565b80156103115780601f106102e857610100808354040283529160200191610311565b820191905f5260205f20905b8154815290600101906020018083116102f457829003601f168201915b50505050509050935093509350509193909250565b5f8054818061033483610566565b919050559050604051806060016040528082815260200186868080601f0160208091040260200160405190810160405280939291908181526020018383808284375f92019190915250505090825250604080516020601f8701819004810282018101909252858152918101919086908690819084018382808284375f92018290525093909452505083815260016020818152604090922084518155918401519192508201906103e390826105ea565b50604082015160028201906103f890826105ea565b50905050949350505050565b5f60208284031215610414575f5ffd5b5035919050565b5f81518084528060208401602086015e5f602082860101526020601f19601f83011685010191505092915050565b838152606060208201525f610461606083018561041b565b8281036040840152610473818561041b565b9695505050505050565b5f5f83601f84011261048d575f5ffd5b50813567ffffffffffffffff8111156104a4575f5ffd5b6020830191508360208285010111156104bb575f5ffd5b9250929050565b5f5f5f5f604085870312156104d5575f5ffd5b843567ffffffffffffffff8111156104eb575f5ffd5b6104f78782880161047d565b909550935050602085013567ffffffffffffffff811115610516575f5ffd5b6105228782880161047d565b95989497509550505050565b600181811c9082168061054257607f821691505b60208210810361056057634e487b7160e01b5f52602260045260245ffd5b50919050565b5f6001820161058357634e487b7160e01b5f52601160045260245ffd5b5060010190565b634e487b7160e01b5f52604160045260245ffd5b601f8211156105e557805f5260205f20601f840160051c810160208510156105c35750805b601f840160051c820191505b818110156105e2575f81556001016105cf565b50505b505050565b815167ffffffffffffffff8111156106045761060461058a565b61061881610612845461052e565b8461059e565b6020601f82116001811461064a575f83156106335750848201515b5f19600385901b1c1916600184901b1784556105e2565b5f84815260208120601f198516915b828110156106795787850151825560209485019460019092019101610659565b508482101561069657868401515f19600387901b60f8161c191681555b50505050600190811b0190555056fea264697066735822122076baf221b3c248ef878595d4d75cb0ddbdb64249895d54c87df70cf8f06b123964736f6c634300081c0033",
  "linkReferences": {},
  "deployedLinkReferences": {},
  "immutableReferences": {},
  "inputSourceName": "project/contracts/pirates.sol",
  "buildInfoId": "solc-0_8_28-e1bf5f3edeafabeaedca68ce10dba84d1b7b8876"
}