{
  "_format": "hh3-artifact-1",
  "contractName": "MatchManager",
  "sourceName": "contracts/pirates.sol",
  "abi": [
    {
      "inputs": [
        {
          "internalType": "address",
          "name": "crewManagerAddr",
          "type": "address"
        }
      ],
      "stateMutability": "nonpayable",
      "type": "constructor"
    },
    {
      "anonymous": false,
      "inputs": [
        {
          "indexed": true,
          "internalType": "uint256",
          "name": "matchId",
          "type": "uint256"
        },
        {
          "indexed": true,
          "internalType": "uint256",
          "name": "gameId",
          "type": "uint256"
        }
      ],
      "name": "MatchFinalized",
      "type": "event"
    },
    {
      "inputs": [],
      "name": "crewManager",
      "outputs": [
        {
          "internalType": "contract ICrewManager",
          "name": "",
          "type": "address"
        }
      ],
      "stateMutability": "view",
      "type": "function"
    },
    {
      "inputs": [
        {
          "internalType": "uint256",
          "name": "gameId",
          "type": "uint256"
        },
        {
          "internalType": "uint256[]",
          "name": "winners",
          "type": "uint256[]"
        },
        {
          "internalType": "uint256[]",
          "name": "losers",
          "type": "uint256[]"
        },
        {
          "internalType": "uint256[]",
          "name": "draws",
          "type": "uint256[]"
        }
      ],
      "name": "finalizeMatch",
      "outputs": [
        {
          "internalType": "uint256",
          "name": "id",
          "type": "uint256"
        }
      ],
      "stateMutability": "nonpayable",
      "type": "function"
    },
    {
      "inputs": [
        {
          "internalType": "uint256",
          "name": "matchId",
          "type": "uint256"
        }
      ],
      "name": "getMatch",
      "outputs": [
        {
          "internalType": "uint256",
          "name": "id",
          "type": "uint256"
        },
        {
          "internalType": "uint256",
          "name": "gameId",
          "type": "uint256"
        },
        {
          "internalType": "uint256[]",
          "name": "winners",
          "type": "uint256[]"
        },
        {
          "internalType": "uint256[]",
          "name": "losers",
          "type": "uint256[]"
        },
        {
          "internalType": "uint256[]",
          "name": "draws",
          "type": "uint256[]"
        },
        {
          "internalType": "bool",
          "name": "finalized",
          "type": "bool"
        }
      ],
      "stateMutability": "view",
      "type": "function"
    },
    {
      "inputs": [
        {
          "internalType": "uint256",
          "name": "",
          "type": "uint256"
        }
      ],
      "name": "matches",
      "outputs": [
        {
          "internalType": "uint256",
          "name": "matchId",
          "type": "uint256"
        },
        {
          "internalType": "uint256",
          "name": "gameId",
          "type": "uint256"
        },
        {
          "internalType": "bool",
          "name": "finalized",
          "type": "bool"
        }
      ],
      "stateMutability": "view",
      "type": "function"
    },
    {
      "inputs": [],
      "name": "nextMatchId",
      "outputs": [
        {
          "internalType": "uint256",
          "name": "",
          "type": "uint256"
        }
      ],
      "stateMutability": "view",
      "type": "function"
    }
  ],
  "bytecode": "0x6080604052600180553480156012575f5ffd5b506040516107a23803806107a2833981016040819052602f916052565b5f80546001600160a01b0319166001600160a01b0392909216919091179055607d565b5f602082840312156061575f5ffd5b81516001600160a01b03811681146076575f5ffd5b9392505050565b6107188061008a5f395ff3fe608060405234801561000f575f5ffd5b5060043610610055575f3560e01c80632fe6a1c4146100595780633d092b3d146100885780634768d4ef146100ad5780639add2154146100fb578063c5adf7c91461011c575b5f5ffd5b5f5461006b906001600160a01b031681565b6040516001600160a01b0390911681526020015b60405180910390f35b61009b61009636600461050f565b610125565b60405161007f96959493929190610560565b6100de6100bb36600461050f565b60026020525f908152604090208054600182015460059092015490919060ff1683565b60408051938452602084019290925215159082015260600161007f565b61010e610109366004610602565b61026d565b60405190815260200161007f565b61010e60015481565b5f5f60608060605f5f60025f8981526020019081526020015f209050805f01548160010154826002018360030184600401856005015f9054906101000a900460ff16838054806020026020016040519081016040528092919081815260200182805480156101b057602002820191905f5260205f20905b81548152602001906001019080831161019c575b505050505093508280548060200260200160405190810160405280929190818152602001828054801561020057602002820191905f5260205f20905b8154815260200190600101908083116101ec575b505050505092508180548060200260200160405190810160405280929190818152602001828054801561025057602002820191905f5260205f20905b81548152602001906001019080831161023c575b505050505091509650965096509650965096505091939550919395565b600180545f918261027d836106aa565b909155505f818152600260208190526040909120828155600181018b90559192506102ab90820189896104b2565b506102ba6003820187876104b2565b506102c96004820185856104b2565b5060058101805460ff191660011790555f5b87811015610363575f546001600160a01b0316631003c1b58a8a84818110610305576103056106ce565b905060200201356040518263ffffffff1660e01b815260040161032a91815260200190565b5f604051808303815f87803b158015610341575f5ffd5b505af1158015610353573d5f5f3e3d5ffd5b5050600190920191506102db9050565b505f5b858110156103ee575f546001600160a01b0316630a11da1e888884818110610390576103906106ce565b905060200201356040518263ffffffff1660e01b81526004016103b591815260200190565b5f604051808303815f87803b1580156103cc575f5ffd5b505af11580156103de573d5f5f3e3d5ffd5b5050600190920191506103669050565b505f5b83811015610479575f546001600160a01b0316630161406086868481811061041b5761041b6106ce565b905060200201356040518263ffffffff1660e01b815260040161044091815260200190565b5f604051808303815f87803b158015610457575f5ffd5b505af1158015610469573d5f5f3e3d5ffd5b5050600190920191506103f19050565b50604051899083907f86539fafc9f459f87087ce6fda640f328190df6fff93d5f8dec5f157c0a1e171905f90a350979650505050505050565b828054828255905f5260205f209081019282156104eb579160200282015b828111156104eb5782358255916020019190600101906104d0565b506104f79291506104fb565b5090565b5b808211156104f7575f81556001016104fc565b5f6020828403121561051f575f5ffd5b5035919050565b5f8151808452602084019350602083015f5b82811015610556578151865260209586019590910190600101610538565b5093949350505050565b86815285602082015260c060408201525f61057e60c0830187610526565b82810360608401526105908187610526565b905082810360808401526105a48186610526565b91505082151560a0830152979650505050505050565b5f5f83601f8401126105ca575f5ffd5b50813567ffffffffffffffff8111156105e1575f5ffd5b6020830191508360208260051b85010111156105fb575f5ffd5b9250929050565b5f5f5f5f5f5f5f6080888a031215610618575f5ffd5b87359650602088013567ffffffffffffffff811115610635575f5ffd5b6106418a828b016105ba565b909750955050604088013567ffffffffffffffff811115610660575f5ffd5b61066c8a828b016105ba565b909550935050606088013567ffffffffffffffff81111561068b575f5ffd5b6106978a828b016105ba565b989b979a50959850939692959293505050565b5f600182016106c757634e487b7160e01b5f52601160045260245ffd5b5060010190565b634e487b7160e01b5f52603260045260245ffdfea2646970667358221220661d97a1f539a84533671d317116381d2b8d7fb5d3adc8e6d11b3160142b9a4d64736f6c634300081c0033",
  "linkReferences": {},
  "deployedLinkReferences": {},
  "immutableReferences": {},
  "inputSourceName": "project/contracts/pirates.sol",
  "buildInfoId": "solc-0_8_28-e1bf5f3edeafabeaedca68ce10dba84d1b7b8876"
}