{
  "_format": "hh3-artifact-1",
  "contractName": "CrewManager",
  "sourceName": "contracts/pirates.sol",
  "abi": [
    {
      "anonymous": false,
      "inputs": [
        {
          "indexed": true,
          "internalType": "uint256",
          "name": "crewId",
          "type": "uint256"
        },
        {
          "indexed": true,
          "internalType": "address",
          "name": "owner",
          "type": "address"
        }
      ],
      "name": "CrewRegistered",
      "type": "event"
    },
    {
      "anonymous": false,
      "inputs": [
        {
          "indexed": true,
          "internalType": "uint256",
          "name": "crewId",
          "type": "uint256"
        },
        {
          "indexed": false,
          "internalType": "uint32",
          "name": "wins",
          "type": "uint32"
        },
        {
          "indexed": false,
          "internalType": "uint32",
          "name": "losses",
          "type": "uint32"
        },
        {
          "indexed": false,
          "internalType": "uint32",
          "name": "draws",
          "type": "uint32"
        }
      ],
      "name": "CrewUpdated",
      "type": "event"
    },
    {
      "anonymous": false,
      "inputs": [
        {
          "indexed": true,
          "internalType": "address",
          "name": "matchManager",
          "type": "address"
        }
      ],
      "name": "MatchManagerSet",
      "type": "event"
    },
    {
      "inputs": [
        {
          "internalType": "uint256",
          "name": "crewId",
          "type": "uint256"
        }
      ],
      "name": "addDraw",
      "outputs": [],
      "stateMutability": "nonpayable",
      "type": "function"
    },
    {
      "inputs": [
        {
          "internalType": "uint256",
          "name": "crewId",
          "type": "uint256"
        }
      ],
      "name": "addLoss",
      "outputs": [],
      "stateMutability": "nonpayable",
      "type": "function"
    },
    {
      "inputs": [
        {
          "internalType": "uint256",
          "name": "crewId",
          "type": "uint256"
        }
      ],
      "name": "addWin",
      "outputs": [],
      "stateMutability": "nonpayable",
      "type": "function"
    },
    {
      "inputs": [
        {
          "internalType": "uint256",
          "name": "",
          "type": "uint256"
        }
      ],
      "name": "crews",
      "outputs": [
        {
          "internalType": "address",
          "name": "owner",
          "type": "address"
        },
        {
          "internalType": "uint32",
          "name": "wins",
          "type": "uint32"
        },
        {
          "internalType": "uint32",
          "name": "losses",
          "type": "uint32"
        },
        {
          "internalType": "uint32",
          "name": "draws",
          "type": "uint32"
        }
      ],
      "stateMutability": "view",
      "type": "function"
    },
    {
      "inputs": [
        {
          "internalType": "uint256",
          "name": "crewId",
          "type": "uint256"
        }
      ],
      "name": "getCrew",
      "outputs": [
        {
          "internalType": "address",
          "name": "owner",
          "type": "address"
        },
        {
          "internalType": "uint32",
          "name": "wins",
          "type": "uint32"
        },
        {
          "internalType": "uint32",
          "name": "losses",
          "type": "uint32"
        },
        {
          "internalType": "uint32",
          "name": "draws",
          "type": "uint32"
        }
      ],
      "stateMutability": "view",
      "type": "function"
    },
    {
      "inputs": [
        {
          "internalType": "uint256",
          "name": "crewId",
          "type": "uint256"
        }
      ],
      "name": "getPoint",
      "outputs": [
        {
          "internalType": "uint32",
          "name": "",
          "type": "uint32"
        }
      ],
      "stateMutability": "view",
      "type": "function"
    },
    {
      "inputs": [],
      "name": "matchManager",
      "outputs": [
        {
          "internalType": "address",
          "name": "",
          "type": "address"
        }
      ],
      "stateMutability": "view",
      "type": "function"
    },
    {
      "inputs": [],
      "name": "nextCrewId",
      "outputs": [
        {
          "internalType": "uint256",
          "name": "",
          "type": "uint256"
        }
      ],
      "stateMutability": "view",
      "type": "function"
    },
    {
      "inputs": [],
      "name": "registerCrew",
      "outputs": [
        {
          "internalType": "uint256",
          "name": "crewId",
          "type": "uint256"
        }
      ],
      "stateMutability": "nonpayable",
      "type": "function"
    },
    {
      "inputs": [
        {
          "internalType": "address",
          "name": "m",
          "type": "address"
        }
      ],
      "name": "setMatchManager",
      "outputs": [],
      "stateMutability": "nonpayable",
      "type": "function"
    }
  ],
  "bytecode": "0x608060405260015f553480156012575f5ffd5b506106d0806100205f395ff3fe608060405234801561000f575f5ffd5b506004361061009b575f3560e01c806385ca319b1161006357806385ca319b14610108578063869f1c8e1461018c578063b74a35d9146101b4578063e826cdf1146101bc578063f99a8ac414610208575f5ffd5b8063016140601461009f5780630a11da1e146100b45780631003c1b5146100c7578063290f1d08146100da5780634e47a79a146100ed575b5f5ffd5b6100b26100ad3660046105be565b610233565b005b6100b26100c23660046105be565b610320565b6100b26100d53660046105be565b610377565b6100b26100e83660046105d5565b6103ce565b6100f55f5481565b6040519081526020015b60405180910390f35b6101566101163660046105be565b5f908152600160205260409020546001600160a01b0381169163ffffffff600160a01b8304811692600160c01b8104821692600160e01b90910490911690565b604080516001600160a01b03909516855263ffffffff9384166020860152918316918401919091521660608201526080016100ff565b61019f61019a3660046105be565b6104a0565b60405163ffffffff90911681526020016100ff565b6100f56104e3565b6101566101ca3660046105be565b60016020525f90815260409020546001600160a01b0381169063ffffffff600160a01b8204811691600160c01b8104821691600160e01b9091041684565b60025461021b906001600160a01b031681565b6040516001600160a01b0390911681526020016100ff565b6002546001600160a01b031633146102665760405162461bcd60e51b815260040161025d906105fb565b60405180910390fd5b5f8181526001602081905260409091208054601c90610293908490600160e01b900463ffffffff1661063a565b82546101009290920a63ffffffff8181021990931691831602179091555f83815260016020908152604091829020548251600160a01b820485168152600160c01b8204851692810192909252600160e01b9004909216908201528291507fe47e32c34cac492e7ade377b08db1a75fc9243942586d0febb4d9290b550ee7e9060600160405180910390a250565b6002546001600160a01b0316331461034a5760405162461bcd60e51b815260040161025d906105fb565b5f8181526001602081905260409091208054601890610293908490600160c01b900463ffffffff1661063a565b6002546001600160a01b031633146103a15760405162461bcd60e51b815260040161025d906105fb565b5f8181526001602081905260409091208054601490610293908490600160a01b900463ffffffff1661063a565b6002546001600160a01b0316156104155760405162461bcd60e51b815260206004820152600b60248201526a185b1c9958591e481cd95d60aa1b604482015260640161025d565b6001600160a01b0381166104575760405162461bcd60e51b81526020600482015260096024820152683d32b9379030b2323960b91b604482015260640161025d565b600280546001600160a01b0319166001600160a01b0383169081179091556040517f777e287c9e8c906598fc754ce1e3cd01ee63239e4c39607c99f99471da95bd1e905f90a250565b5f818152600160205260408120805463ffffffff600160e01b82048116916104d291600160a01b90910416600361065c565b6104dc919061063a565b9392505050565b604080516080810182523381525f602080830182815283850183815260608501848152845485526001909352948320935184549151955192516001600160a01b039091166001600160c01b031990921691909117600160a01b63ffffffff96871602176001600160c01b0316600160c01b928616929092026001600160e01b031691909117600160e01b949091169390930292909217905580549081908061058a83610682565b9091555050604051339082907f1aee26d49ac706e60f9f5ecc3e359e2bc57a1466bec58302c9fb7277355f7b29905f90a390565b5f602082840312156105ce575f5ffd5b5035919050565b5f602082840312156105e5575f5ffd5b81356001600160a01b03811681146104dc575f5ffd5b60208082526011908201527037b7363c9036b0ba31b426b0b730b3b2b960791b604082015260600190565b634e487b7160e01b5f52601160045260245ffd5b63ffffffff818116838216019081111561065657610656610626565b92915050565b63ffffffff818116838216029081169081811461067b5761067b610626565b5092915050565b5f6001820161069357610693610626565b506001019056fea26469706673582212202e444d294da94298fa620f717744850198e4e2510701411dd27ef02dea8c1d5364736f6c634300081c0033",
  "linkReferences": {},
  "deployedLinkReferences": {},
  "immutableReferences": {},
  "inputSourceName": "project/contracts/pirates.sol",
  "buildInfoId": "solc-0_8_28-e1bf5f3edeafabeaedca68ce10dba84d1b7b8876"
}