{
  "_format": "hh-sol-artifact-1",
  "contractName": "CrewManager",
  "sourceName": "contracts/ALL.sol",
  "abi": [
    {
      "inputs": [
        {
          "internalType": "uint256",
          "name": "crewId",
          "type": "uint256"
        }
      ],
      "name": "addDraw",
      "outputs": [],
      "stateMutability": "nonpayable",
      "type": "function"
    },
    {
      "inputs": [
        {
          "internalType": "uint256",
          "name": "crewId",
          "type": "uint256"
        }
      ],
      "name": "addLoss",
      "outputs": [],
      "stateMutability": "nonpayable",
      "type": "function"
    },
    {
      "inputs": [
        {
          "internalType": "uint256",
          "name": "crewId",
          "type": "uint256"
        }
      ],
      "name": "addWin",
      "outputs": [],
      "stateMutability": "nonpayable",
      "type": "function"
    },
    {
      "inputs": [
        {
          "internalType": "uint256",
          "name": "",
          "type": "uint256"
        }
      ],
      "name": "crews",
      "outputs": [
        {
          "internalType": "uint256",
          "name": "crewId",
          "type": "uint256"
        },
        {
          "internalType": "address",
          "name": "owner",
          "type": "address"
        },
        {
          "internalType": "uint32",
          "name": "wins",
          "type": "uint32"
        },
        {
          "internalType": "uint32",
          "name": "losses",
          "type": "uint32"
        },
        {
          "internalType": "uint32",
          "name": "draws",
          "type": "uint32"
        }
      ],
      "stateMutability": "view",
      "type": "function"
    },
    {
      "inputs": [
        {
          "internalType": "uint256",
          "name": "crewId",
          "type": "uint256"
        }
      ],
      "name": "getCrew",
      "outputs": [
        {
          "internalType": "uint256",
          "name": "id",
          "type": "uint256"
        },
        {
          "internalType": "address",
          "name": "owner",
          "type": "address"
        },
        {
          "internalType": "uint32",
          "name": "wins",
          "type": "uint32"
        },
        {
          "internalType": "uint32",
          "name": "losses",
          "type": "uint32"
        },
        {
          "internalType": "uint32",
          "name": "draws",
          "type": "uint32"
        }
      ],
      "stateMutability": "view",
      "type": "function"
    },
    {
      "inputs": [
        {
          "internalType": "uint256",
          "name": "crewId",
          "type": "uint256"
        }
      ],
      "name": "getPoint",
      "outputs": [
        {
          "internalType": "uint32",
          "name": "",
          "type": "uint32"
        }
      ],
      "stateMutability": "view",
      "type": "function"
    },
    {
      "inputs": [],
      "name": "nextCrewId",
      "outputs": [
        {
          "internalType": "uint256",
          "name": "",
          "type": "uint256"
        }
      ],
      "stateMutability": "view",
      "type": "function"
    },
    {
      "inputs": [],
      "name": "registerCrew",
      "outputs": [
        {
          "internalType": "uint256",
          "name": "",
          "type": "uint256"
        }
      ],
      "stateMutability": "nonpayable",
      "type": "function"
    }
  ],
  "bytecode": "0x60806040526001600055348015601457600080fd5b50610a79806100246000396000f3fe608060405234801561001057600080fd5b50600436106100885760003560e01c806385ca319b1161005b57806385ca319b146100ff578063869f1c8e14610133578063b74a35d914610163578063e826cdf11461018157610088565b8063016140601461008d5780630a11da1e146100a95780631003c1b5146100c55780634e47a79a146100e1575b600080fd5b6100a760048036038101906100a291906107b5565b6101b5565b005b6100c360048036038101906100be91906107b5565b6102af565b005b6100df60048036038101906100da91906107b5565b6103a9565b005b6100e96104a3565b6040516100f691906107f1565b60405180910390f35b610119600480360381019061011491906107b5565b6104a9565b60405161012a95949392919061086c565b60405180910390f35b61014d600480360381019061014891906107b5565b610544565b60405161015a91906108bf565b60405180910390f35b61016b6105a4565b60405161017891906107f1565b60405180910390f35b61019b600480360381019061019691906107b5565b6106f4565b6040516101ac95949392919061086c565b60405180910390f35b3373ffffffffffffffffffffffffffffffffffffffff166001600083815260200190815260200160002060010160009054906101000a900473ffffffffffffffffffffffffffffffffffffffff1673ffffffffffffffffffffffffffffffffffffffff1614610259576040517f08c379a000000000000000000000000000000000000000000000000000000000815260040161025090610937565b60405180910390fd5b6001806000838152602001908152602001600020600101601c8282829054906101000a900463ffffffff1661028e9190610986565b92506101000a81548163ffffffff021916908363ffffffff16021790555050565b3373ffffffffffffffffffffffffffffffffffffffff166001600083815260200190815260200160002060010160009054906101000a900473ffffffffffffffffffffffffffffffffffffffff1673ffffffffffffffffffffffffffffffffffffffff1614610353576040517f08c379a000000000000000000000000000000000000000000000000000000000815260040161034a90610937565b60405180910390fd5b600180600083815260200190815260200160002060010160188282829054906101000a900463ffffffff166103889190610986565b92506101000a81548163ffffffff021916908363ffffffff16021790555050565b3373ffffffffffffffffffffffffffffffffffffffff166001600083815260200190815260200160002060010160009054906101000a900473ffffffffffffffffffffffffffffffffffffffff1673ffffffffffffffffffffffffffffffffffffffff161461044d576040517f08c379a000000000000000000000000000000000000000000000000000000000815260040161044490610937565b60405180910390fd5b600180600083815260200190815260200160002060010160148282829054906101000a900463ffffffff166104829190610986565b92506101000a81548163ffffffff021916908363ffffffff16021790555050565b60005481565b60008060008060008060016000888152602001908152602001600020905080600001548160010160009054906101000a900473ffffffffffffffffffffffffffffffffffffffff168260010160149054906101000a900463ffffffff168360010160189054906101000a900463ffffffff1684600101601c9054906101000a900463ffffffff16955095509550955095505091939590929450565b60008060016000848152602001908152602001600020905080600101601c9054906101000a900463ffffffff1660038260010160149054906101000a900463ffffffff1661059291906109be565b61059c9190610986565b915050919050565b6000806000808154809291906105b9906109fb565b9190505590506040518060a001604052808281526020013373ffffffffffffffffffffffffffffffffffffffff168152602001600063ffffffff168152602001600063ffffffff168152602001600063ffffffff16815250600160008381526020019081526020016000206000820151816000015560208201518160010160006101000a81548173ffffffffffffffffffffffffffffffffffffffff021916908373ffffffffffffffffffffffffffffffffffffffff16021790555060408201518160010160146101000a81548163ffffffff021916908363ffffffff16021790555060608201518160010160186101000a81548163ffffffff021916908363ffffffff160217905550608082015181600101601c6101000a81548163ffffffff021916908363ffffffff1602179055509050508091505090565b60016020528060005260406000206000915090508060000154908060010160009054906101000a900473ffffffffffffffffffffffffffffffffffffffff16908060010160149054906101000a900463ffffffff16908060010160189054906101000a900463ffffffff169080600101601c9054906101000a900463ffffffff16905085565b600080fd5b6000819050919050565b6107928161077f565b811461079d57600080fd5b50565b6000813590506107af81610789565b92915050565b6000602082840312156107cb576107ca61077a565b5b60006107d9848285016107a0565b91505092915050565b6107eb8161077f565b82525050565b600060208201905061080660008301846107e2565b92915050565b600073ffffffffffffffffffffffffffffffffffffffff82169050919050565b60006108378261080c565b9050919050565b6108478161082c565b82525050565b600063ffffffff82169050919050565b6108668161084d565b82525050565b600060a08201905061088160008301886107e2565b61088e602083018761083e565b61089b604083018661085d565b6108a8606083018561085d565b6108b5608083018461085d565b9695505050505050565b60006020820190506108d4600083018461085d565b92915050565b600082825260208201905092915050565b7f4e6f74206f776e65720000000000000000000000000000000000000000000000600082015250565b60006109216009836108da565b915061092c826108eb565b602082019050919050565b6000602082019050818103600083015261095081610914565b9050919050565b7f4e487b7100000000000000000000000000000000000000000000000000000000600052601160045260246000fd5b60006109918261084d565b915061099c8361084d565b9250828201905063ffffffff8111156109b8576109b7610957565b5b92915050565b60006109c98261084d565b91506109d48361084d565b92508282026109e28161084d565b91508082146109f4576109f3610957565b5b5092915050565b6000610a068261077f565b91507fffffffffffffffffffffffffffffffffffffffffffffffffffffffffffffffff8203610a3857610a37610957565b5b60018201905091905056fea264697066735822122064e056d42c04ec4e27c523ccf6eb23925c1e6f69f3c7bdc8cb8a7f78c268162f64736f6c634300081c0033",
  "linkReferences": {},
  "deployedLinkReferences": {}
}