{
  "_format": "hh-sol-artifact-1",
  "contractName": "GameRegistry",
  "sourceName": "contracts/ALL.sol",
  "abi": [
    {
      "inputs": [
        {
          "internalType": "string",
          "name": "name",
          "type": "string"
        },
        {
          "internalType": "string",
          "name": "gameURL",
          "type": "string"
        }
      ],
      "name": "addGame",
      "outputs": [
        {
          "internalType": "uint256",
          "name": "",
          "type": "uint256"
        }
      ],
      "stateMutability": "nonpayable",
      "type": "function"
    },
    {
      "inputs": [
        {
          "internalType": "uint256",
          "name": "",
          "type": "uint256"
        }
      ],
      "name": "games",
      "outputs": [
        {
          "internalType": "uint256",
          "name": "gameId",
          "type": "uint256"
        },
        {
          "internalType": "string",
          "name": "name",
          "type": "string"
        },
        {
          "internalType": "string",
          "name": "gameURL",
          "type": "string"
        }
      ],
      "stateMutability": "view",
      "type": "function"
    },
    {
      "inputs": [
        {
          "internalType": "uint256",
          "name": "gameId",
          "type": "uint256"
        }
      ],
      "name": "getGame",
      "outputs": [
        {
          "internalType": "uint256",
          "name": "",
          "type": "uint256"
        },
        {
          "internalType": "string",
          "name": "",
          "type": "string"
        },
        {
          "internalType": "string",
          "name": "",
          "type": "string"
        }
      ],
      "stateMutability": "view",
      "type": "function"
    },
    {
      "inputs": [],
      "name": "nextGameId",
      "outputs": [
        {
          "internalType": "uint256",
          "name": "",
          "type": "uint256"
        }
      ],
      "stateMutability": "view",
      "type": "function"
    }
  ],
  "bytecode": "0x60806040526001600055348015601457600080fd5b50610ab4806100246000396000f3fe608060405234801561001057600080fd5b506004361061004c5760003560e01c8063117a5b9014610051578063a2f77bcc14610083578063b135bbb0146100b5578063d8c62356146100d3575b600080fd5b61006b600480360381019061006691906104e8565b610103565b60405161007a939291906105b4565b60405180910390f35b61009d600480360381019061009891906104e8565b61023d565b6040516100ac939291906105b4565b60405180910390f35b6100bd61038c565b6040516100ca91906105f9565b60405180910390f35b6100ed60048036038101906100e89190610679565b610392565b6040516100fa91906105f9565b60405180910390f35b600160205280600052604060002060009150905080600001549080600101805461012c90610729565b80601f016020809104026020016040519081016040528092919081815260200182805461015890610729565b80156101a55780601f1061017a576101008083540402835291602001916101a5565b820191906000526020600020905b81548152906001019060200180831161018857829003601f168201915b5050505050908060020180546101ba90610729565b80601f01602080910402602001604051908101604052809291908181526020018280546101e690610729565b80156102335780601f1061020857610100808354040283529160200191610233565b820191906000526020600020905b81548152906001019060200180831161021657829003601f168201915b5050505050905083565b600060608060006001600086815260200190815260200160002090508060000154816001018260020181805461027290610729565b80601f016020809104026020016040519081016040528092919081815260200182805461029e90610729565b80156102eb5780601f106102c0576101008083540402835291602001916102eb565b820191906000526020600020905b8154815290600101906020018083116102ce57829003601f168201915b505050505091508080546102fe90610729565b80601f016020809104026020016040519081016040528092919081815260200182805461032a90610729565b80156103775780601f1061034c57610100808354040283529160200191610377565b820191906000526020600020905b81548152906001019060200180831161035a57829003601f168201915b50505050509050935093509350509193909250565b60005481565b6000806000808154809291906103a790610789565b919050559050604051806060016040528082815260200187878080601f016020809104026020016040519081016040528093929190818152602001838380828437600081840152601f19601f82011690508083019250505050505050815260200185858080601f016020809104026020016040519081016040528093929190818152602001838380828437600081840152601f19601f820116905080830192505050505050508152506001600083815260200190815260200160002060008201518160000155602082015181600101908161048291906109ac565b50604082015181600201908161049891906109ac565b5090505080915050949350505050565b600080fd5b600080fd5b6000819050919050565b6104c5816104b2565b81146104d057600080fd5b50565b6000813590506104e2816104bc565b92915050565b6000602082840312156104fe576104fd6104a8565b5b600061050c848285016104d3565b91505092915050565b61051e816104b2565b82525050565b600081519050919050565b600082825260208201905092915050565b60005b8381101561055e578082015181840152602081019050610543565b60008484015250505050565b6000601f19601f8301169050919050565b600061058682610524565b610590818561052f565b93506105a0818560208601610540565b6105a98161056a565b840191505092915050565b60006060820190506105c96000830186610515565b81810360208301526105db818561057b565b905081810360408301526105ef818461057b565b9050949350505050565b600060208201905061060e6000830184610515565b92915050565b600080fd5b600080fd5b600080fd5b60008083601f84011261063957610638610614565b5b8235905067ffffffffffffffff81111561065657610655610619565b5b6020830191508360018202830111156106725761067161061e565b5b9250929050565b60008060008060408587031215610693576106926104a8565b5b600085013567ffffffffffffffff8111156106b1576106b06104ad565b5b6106bd87828801610623565b9450945050602085013567ffffffffffffffff8111156106e0576106df6104ad565b5b6106ec87828801610623565b925092505092959194509250565b7f4e487b7100000000000000000000000000000000000000000000000000000000600052602260045260246000fd5b6000600282049050600182168061074157607f821691505b602082108103610754576107536106fa565b5b50919050565b7f4e487b7100000000000000000000000000000000000000000000000000000000600052601160045260246000fd5b6000610794826104b2565b91507fffffffffffffffffffffffffffffffffffffffffffffffffffffffffffffffff82036107c6576107c561075a565b5b600182019050919050565b7f4e487b7100000000000000000000000000000000000000000000000000000000600052604160045260246000fd5b60008190508160005260206000209050919050565b60006020601f8301049050919050565b600082821b905092915050565b6000600883026108627fffffffffffffffffffffffffffffffffffffffffffffffffffffffffffffffff82610825565b61086c8683610825565b95508019841693508086168417925050509392505050565b6000819050919050565b60006108a96108a461089f846104b2565b610884565b6104b2565b9050919050565b6000819050919050565b6108c38361088e565b6108d76108cf826108b0565b848454610832565b825550505050565b600090565b6108ec6108df565b6108f78184846108ba565b505050565b5b8181101561091b576109106000826108e4565b6001810190506108fd565b5050565b601f8211156109605761093181610800565b61093a84610815565b81016020851015610949578190505b61095d61095585610815565b8301826108fc565b50505b505050565b600082821c905092915050565b600061098360001984600802610965565b1980831691505092915050565b600061099c8383610972565b9150826002028217905092915050565b6109b582610524565b67ffffffffffffffff8111156109ce576109cd6107d1565b5b6109d88254610729565b6109e382828561091f565b600060209050601f831160018114610a165760008415610a04578287015190505b610a0e8582610990565b865550610a76565b601f198416610a2486610800565b60005b82811015610a4c57848901518255600182019150602085019450602081019050610a27565b86831015610a695784890151610a65601f891682610972565b8355505b6001600288020188555050505b50505050505056fea26469706673582212204f1eece610c102abdae2a942ab603fd86a2e2c94ad56ea7753851bd141af767964736f6c634300081c0033",
  "linkReferences": {},
  "deployedLinkReferences": {}
}