{
  "_format": "hh-sol-artifact-1",
  "contractName": "MatchManager",
  "sourceName": "contracts/ALL.sol",
  "abi": [
    {
      "inputs": [
        {
          "internalType": "address",
          "name": "crewManagerAddr",
          "type": "address"
        }
      ],
      "stateMutability": "nonpayable",
      "type": "constructor"
    },
    {
      "inputs": [],
      "name": "crewManager",
      "outputs": [
        {
          "internalType": "contract ICrewManager",
          "name": "",
          "type": "address"
        }
      ],
      "stateMutability": "view",
      "type": "function"
    },
    {
      "inputs": [
        {
          "internalType": "string",
          "name": "gameName",
          "type": "string"
        },
        {
          "internalType": "uint256[]",
          "name": "winners",
          "type": "uint256[]"
        },
        {
          "internalType": "uint256[]",
          "name": "losers",
          "type": "uint256[]"
        },
        {
          "internalType": "uint256[]",
          "name": "draws",
          "type": "uint256[]"
        }
      ],
      "name": "finalizeMatch",
      "outputs": [
        {
          "internalType": "uint256",
          "name": "",
          "type": "uint256"
        }
      ],
      "stateMutability": "nonpayable",
      "type": "function"
    },
    {
      "inputs": [
        {
          "internalType": "uint256",
          "name": "matchId",
          "type": "uint256"
        }
      ],
      "name": "getMatch",
      "outputs": [
        {
          "internalType": "uint256",
          "name": "id",
          "type": "uint256"
        },
        {
          "internalType": "string",
          "name": "gameName",
          "type": "string"
        },
        {
          "internalType": "uint256[]",
          "name": "winners",
          "type": "uint256[]"
        },
        {
          "internalType": "uint256[]",
          "name": "losers",
          "type": "uint256[]"
        },
        {
          "internalType": "uint256[]",
          "name": "draws",
          "type": "uint256[]"
        },
        {
          "internalType": "bool",
          "name": "finalized",
          "type": "bool"
        }
      ],
      "stateMutability": "view",
      "type": "function"
    },
    {
      "inputs": [
        {
          "internalType": "uint256",
          "name": "",
          "type": "uint256"
        }
      ],
      "name": "matches",
      "outputs": [
        {
          "internalType": "uint256",
          "name": "matchId",
          "type": "uint256"
        },
        {
          "internalType": "string",
          "name": "gameName",
          "type": "string"
        },
        {
          "internalType": "bool",
          "name": "finalized",
          "type": "bool"
        }
      ],
      "stateMutability": "view",
      "type": "function"
    },
    {
      "inputs": [],
      "name": "nextMatchId",
      "outputs": [
        {
          "internalType": "uint256",
          "name": "",
          "type": "uint256"
        }
      ],
      "stateMutability": "view",
      "type": "function"
    }
  ],
  "bytecode": "0x60806040526001805534801561001457600080fd5b50604051611157380380611157833981810160405281019061003691906100df565b806000806101000a81548173ffffffffffffffffffffffffffffffffffffffff021916908373ffffffffffffffffffffffffffffffffffffffff1602179055505061010c565b600080fd5b600073ffffffffffffffffffffffffffffffffffffffff82169050919050565b60006100ac82610081565b9050919050565b6100bc816100a1565b81146100c757600080fd5b50565b6000815190506100d9816100b3565b92915050565b6000602082840312156100f5576100f461007c565b5b6000610103848285016100ca565b91505092915050565b61103c8061011b6000396000f3fe608060405234801561001057600080fd5b50600436106100575760003560e01c80632fe6a1c41461005c5780633d092b3d1461007a5780634768d4ef146100af578063c5adf7c9146100e1578063f87f8671146100ff575b600080fd5b61006461012f565b60405161007191906107da565b60405180910390f35b610094600480360381019061008f9190610835565b610153565b6040516100a6969594939291906109da565b60405180910390f35b6100c960048036038101906100c49190610835565b610332565b6040516100d893929190610a57565b60405180910390f35b6100e96103f1565b6040516100f69190610a95565b60405180910390f35b61011960048036038101906101149190610b6b565b6103f7565b6040516101269190610a95565b60405180910390f35b60008054906101000a900473ffffffffffffffffffffffffffffffffffffffff1681565b60006060806060806000806002600089815260200190815260200160002090508060000154816001018260020183600301846004018560050160009054906101000a900460ff168480546101a690610c83565b80601f01602080910402602001604051908101604052809291908181526020018280546101d290610c83565b801561021f5780601f106101f45761010080835404028352916020019161021f565b820191906000526020600020905b81548152906001019060200180831161020257829003601f168201915b505050505094508380548060200260200160405190810160405280929190818152602001828054801561027157602002820191906000526020600020905b81548152602001906001019080831161025d575b50505050509350828054806020026020016040519081016040528092919081815260200182805480156102c357602002820191906000526020600020905b8154815260200190600101908083116102af575b505050505092508180548060200260200160405190810160405280929190818152602001828054801561031557602002820191906000526020600020905b815481526020019060010190808311610301575b505050505091509650965096509650965096505091939550919395565b600260205280600052604060002060009150905080600001549080600101805461035b90610c83565b80601f016020809104026020016040519081016040528092919081815260200182805461038790610c83565b80156103d45780601f106103a9576101008083540402835291602001916103d4565b820191906000526020600020905b8154815290600101906020018083116103b757829003601f168201915b5050505050908060050160009054906101000a900460ff16905083565b60015481565b6000806001600081548092919061040d90610ce3565b91905055905060006002600083815260200190815260200160002090508181600001819055508a8a826001019182610446929190610f07565b50888882600201919061045a9291906106f1565b50868682600301919061046e9291906106f1565b5084848260040191906104829291906106f1565b5060018160050160006101000a81548160ff02191690831515021790555060005b8989905081101561055f5760008054906101000a900473ffffffffffffffffffffffffffffffffffffffff1673ffffffffffffffffffffffffffffffffffffffff16631003c1b58b8b848181106104fd576104fc610fd7565b5b905060200201356040518263ffffffff1660e01b81526004016105209190610a95565b600060405180830381600087803b15801561053a57600080fd5b505af115801561054e573d6000803e3d6000fd5b5050505080806001019150506104a3565b5060005b8787905081101561061f5760008054906101000a900473ffffffffffffffffffffffffffffffffffffffff1673ffffffffffffffffffffffffffffffffffffffff16630a11da1e8989848181106105bd576105bc610fd7565b5b905060200201356040518263ffffffff1660e01b81526004016105e09190610a95565b600060405180830381600087803b1580156105fa57600080fd5b505af115801561060e573d6000803e3d6000fd5b505050508080600101915050610563565b5060005b858590508110156106df5760008054906101000a900473ffffffffffffffffffffffffffffffffffffffff1673ffffffffffffffffffffffffffffffffffffffff16630161406087878481811061067d5761067c610fd7565b5b905060200201356040518263ffffffff1660e01b81526004016106a09190610a95565b600060405180830381600087803b1580156106ba57600080fd5b505af11580156106ce573d6000803e3d6000fd5b505050508080600101915050610623565b50819250505098975050505050505050565b82805482825590600052602060002090810192821561072d579160200282015b8281111561072c578235825591602001919060010190610711565b5b50905061073a919061073e565b5090565b5b8082111561075757600081600090555060010161073f565b5090565b600073ffffffffffffffffffffffffffffffffffffffff82169050919050565b6000819050919050565b60006107a061079b6107968461075b565b61077b565b61075b565b9050919050565b60006107b282610785565b9050919050565b60006107c4826107a7565b9050919050565b6107d4816107b9565b82525050565b60006020820190506107ef60008301846107cb565b92915050565b600080fd5b600080fd5b6000819050919050565b610812816107ff565b811461081d57600080fd5b50565b60008135905061082f81610809565b92915050565b60006020828403121561084b5761084a6107f5565b5b600061085984828501610820565b91505092915050565b61086b816107ff565b82525050565b600081519050919050565b600082825260208201905092915050565b60005b838110156108ab578082015181840152602081019050610890565b60008484015250505050565b6000601f19601f8301169050919050565b60006108d382610871565b6108dd818561087c565b93506108ed81856020860161088d565b6108f6816108b7565b840191505092915050565b600081519050919050565b600082825260208201905092915050565b6000819050602082019050919050565b610936816107ff565b82525050565b6000610948838361092d565b60208301905092915050565b6000602082019050919050565b600061096c82610901565b610976818561090c565b93506109818361091d565b8060005b838110156109b2578151610999888261093c565b97506109a483610954565b925050600181019050610985565b5085935050505092915050565b60008115159050919050565b6109d4816109bf565b82525050565b600060c0820190506109ef6000830189610862565b8181036020830152610a0181886108c8565b90508181036040830152610a158187610961565b90508181036060830152610a298186610961565b90508181036080830152610a3d8185610961565b9050610a4c60a08301846109cb565b979650505050505050565b6000606082019050610a6c6000830186610862565b8181036020830152610a7e81856108c8565b9050610a8d60408301846109cb565b949350505050565b6000602082019050610aaa6000830184610862565b92915050565b600080fd5b600080fd5b600080fd5b60008083601f840112610ad557610ad4610ab0565b5b8235905067ffffffffffffffff811115610af257610af1610ab5565b5b602083019150836001820283011115610b0e57610b0d610aba565b5b9250929050565b60008083601f840112610b2b57610b2a610ab0565b5b8235905067ffffffffffffffff811115610b4857610b47610ab5565b5b602083019150836020820283011115610b6457610b63610aba565b5b9250929050565b6000806000806000806000806080898b031215610b8b57610b8a6107f5565b5b600089013567ffffffffffffffff811115610ba957610ba86107fa565b5b610bb58b828c01610abf565b9850985050602089013567ffffffffffffffff811115610bd857610bd76107fa565b5b610be48b828c01610b15565b9650965050604089013567ffffffffffffffff811115610c0757610c066107fa565b5b610c138b828c01610b15565b9450945050606089013567ffffffffffffffff811115610c3657610c356107fa565b5b610c428b828c01610b15565b92509250509295985092959890939650565b7f4e487b7100000000000000000000000000000000000000000000000000000000600052602260045260246000fd5b60006002820490506001821680610c9b57607f821691505b602082108103610cae57610cad610c54565b5b50919050565b7f4e487b7100000000000000000000000000000000000000000000000000000000600052601160045260246000fd5b6000610cee826107ff565b91507fffffffffffffffffffffffffffffffffffffffffffffffffffffffffffffffff8203610d2057610d1f610cb4565b5b600182019050919050565b600082905092915050565b7f4e487b7100000000000000000000000000000000000000000000000000000000600052604160045260246000fd5b60008190508160005260206000209050919050565b60006020601f8301049050919050565b600082821b905092915050565b600060088302610dc77fffffffffffffffffffffffffffffffffffffffffffffffffffffffffffffffff82610d8a565b610dd18683610d8a565b95508019841693508086168417925050509392505050565b6000610e04610dff610dfa846107ff565b61077b565b6107ff565b9050919050565b6000819050919050565b610e1e83610de9565b610e32610e2a82610e0b565b848454610d97565b825550505050565b600090565b610e47610e3a565b610e52818484610e15565b505050565b5b81811015610e7657610e6b600082610e3f565b600181019050610e58565b5050565b601f821115610ebb57610e8c81610d65565b610e9584610d7a565b81016020851015610ea4578190505b610eb8610eb085610d7a565b830182610e57565b50505b505050565b600082821c905092915050565b6000610ede60001984600802610ec0565b1980831691505092915050565b6000610ef78383610ecd565b9150826002028217905092915050565b610f118383610d2b565b67ffffffffffffffff811115610f2a57610f29610d36565b5b610f348254610c83565b610f3f828285610e7a565b6000601f831160018114610f6e5760008415610f5c578287013590505b610f668582610eeb565b865550610fce565b601f198416610f7c86610d65565b60005b82811015610fa457848901358255600182019150602085019450602081019050610f7f565b86831015610fc15784890135610fbd601f891682610ecd565b8355505b6001600288020188555050505b50505050505050565b7f4e487b7100000000000000000000000000000000000000000000000000000000600052603260045260246000fdfea264697066735822122089209fdc1e89f9ff00d51ac89a1b21b8f2b77c08e53ca1451c04b8cca08b70ae64736f6c634300081c0033",
  "linkReferences": {},
  "deployedLinkReferences": {}
}